{
  "_format": "hh-sol-artifact-1",
  "contractName": "NftMarketplace",
  "sourceName": "contracts/NftMarketplace.sol",
  "abi": [
    {
      "inputs": [],
      "stateMutability": "nonpayable",
      "type": "constructor"
    },
    {
      "anonymous": false,
      "inputs": [
        {
          "indexed": true,
          "internalType": "address",
          "name": "owner",
          "type": "address"
        },
        {
          "indexed": true,
          "internalType": "address",
          "name": "approved",
          "type": "address"
        },
        {
          "indexed": true,
          "internalType": "uint256",
          "name": "tokenId",
          "type": "uint256"
        }
      ],
      "name": "Approval",
      "type": "event"
    },
    {
      "anonymous": false,
      "inputs": [
        {
          "indexed": true,
          "internalType": "address",
          "name": "owner",
          "type": "address"
        },
        {
          "indexed": true,
          "internalType": "address",
          "name": "operator",
          "type": "address"
        },
        {
          "indexed": false,
          "internalType": "bool",
          "name": "approved",
          "type": "bool"
        }
      ],
      "name": "ApprovalForAll",
      "type": "event"
    },
    {
      "anonymous": false,
      "inputs": [
        {
          "indexed": true,
          "internalType": "uint256",
          "name": "tokenId",
          "type": "uint256"
        },
        {
          "indexed": false,
          "internalType": "address",
          "name": "owner",
          "type": "address"
        },
        {
          "indexed": false,
          "internalType": "address",
          "name": "seller",
          "type": "address"
        },
        {
          "indexed": false,
          "internalType": "uint256",
          "name": "price",
          "type": "uint256"
        },
        {
          "indexed": false,
          "internalType": "bool",
          "name": "currentlyListed",
          "type": "bool"
        }
      ],
      "name": "TokenListedSuccess",
      "type": "event"
    },
    {
      "anonymous": false,
      "inputs": [
        {
          "indexed": true,
          "internalType": "address",
          "name": "from",
          "type": "address"
        },
        {
          "indexed": true,
          "internalType": "address",
          "name": "to",
          "type": "address"
        },
        {
          "indexed": true,
          "internalType": "uint256",
          "name": "tokenId",
          "type": "uint256"
        }
      ],
      "name": "Transfer",
      "type": "event"
    },
    {
      "inputs": [
        {
          "internalType": "address",
          "name": "to",
          "type": "address"
        },
        {
          "internalType": "uint256",
          "name": "tokenId",
          "type": "uint256"
        }
      ],
      "name": "approve",
      "outputs": [],
      "stateMutability": "nonpayable",
      "type": "function"
    },
    {
      "inputs": [
        {
          "internalType": "address",
          "name": "owner",
          "type": "address"
        }
      ],
      "name": "balanceOf",
      "outputs": [
        {
          "internalType": "uint256",
          "name": "",
          "type": "uint256"
        }
      ],
      "stateMutability": "view",
      "type": "function"
    },
    {
      "inputs": [
        {
          "internalType": "string",
          "name": "tokenURI",
          "type": "string"
        },
        {
          "internalType": "uint256",
          "name": "price",
          "type": "uint256"
        }
      ],
      "name": "createToken",
      "outputs": [
        {
          "internalType": "uint256",
          "name": "",
          "type": "uint256"
        }
      ],
      "stateMutability": "payable",
      "type": "function"
    },
    {
      "inputs": [
        {
          "internalType": "uint256",
          "name": "tokenId",
          "type": "uint256"
        }
      ],
      "name": "executeSale",
      "outputs": [],
      "stateMutability": "payable",
      "type": "function"
    },
    {
      "inputs": [],
      "name": "getAllNFTs",
      "outputs": [
        {
          "components": [
            {
              "internalType": "uint256",
              "name": "tokenId",
              "type": "uint256"
            },
            {
              "internalType": "address payable",
              "name": "owner",
              "type": "address"
            },
            {
              "internalType": "address payable",
              "name": "seller",
              "type": "address"
            },
            {
              "internalType": "uint256",
              "name": "price",
              "type": "uint256"
            },
            {
              "internalType": "bool",
              "name": "currentlyListed",
              "type": "bool"
            }
          ],
          "internalType": "struct NftMarketplace.ListedToken[]",
          "name": "",
          "type": "tuple[]"
        }
      ],
      "stateMutability": "view",
      "type": "function"
    },
    {
      "inputs": [
        {
          "internalType": "uint256",
          "name": "tokenId",
          "type": "uint256"
        }
      ],
      "name": "getApproved",
      "outputs": [
        {
          "internalType": "address",
          "name": "",
          "type": "address"
        }
      ],
      "stateMutability": "view",
      "type": "function"
    },
    {
      "inputs": [],
      "name": "getCurrentToken",
      "outputs": [
        {
          "internalType": "uint256",
          "name": "",
          "type": "uint256"
        }
      ],
      "stateMutability": "view",
      "type": "function"
    },
    {
      "inputs": [],
      "name": "getLatestIdToListedToken",
      "outputs": [
        {
          "components": [
            {
              "internalType": "uint256",
              "name": "tokenId",
              "type": "uint256"
            },
            {
              "internalType": "address payable",
              "name": "owner",
              "type": "address"
            },
            {
              "internalType": "address payable",
              "name": "seller",
              "type": "address"
            },
            {
              "internalType": "uint256",
              "name": "price",
              "type": "uint256"
            },
            {
              "internalType": "bool",
              "name": "currentlyListed",
              "type": "bool"
            }
          ],
          "internalType": "struct NftMarketplace.ListedToken",
          "name": "",
          "type": "tuple"
        }
      ],
      "stateMutability": "view",
      "type": "function"
    },
    {
      "inputs": [],
      "name": "getListPrice",
      "outputs": [
        {
          "internalType": "uint256",
          "name": "",
          "type": "uint256"
        }
      ],
      "stateMutability": "view",
      "type": "function"
    },
    {
      "inputs": [
        {
          "internalType": "uint256",
          "name": "tokenId",
          "type": "uint256"
        }
      ],
      "name": "getListedTokenForId",
      "outputs": [
        {
          "components": [
            {
              "internalType": "uint256",
              "name": "tokenId",
              "type": "uint256"
            },
            {
              "internalType": "address payable",
              "name": "owner",
              "type": "address"
            },
            {
              "internalType": "address payable",
              "name": "seller",
              "type": "address"
            },
            {
              "internalType": "uint256",
              "name": "price",
              "type": "uint256"
            },
            {
              "internalType": "bool",
              "name": "currentlyListed",
              "type": "bool"
            }
          ],
          "internalType": "struct NftMarketplace.ListedToken",
          "name": "",
          "type": "tuple"
        }
      ],
      "stateMutability": "view",
      "type": "function"
    },
    {
      "inputs": [],
      "name": "getMyNFTs",
      "outputs": [
        {
          "components": [
            {
              "internalType": "uint256",
              "name": "tokenId",
              "type": "uint256"
            },
            {
              "internalType": "address payable",
              "name": "owner",
              "type": "address"
            },
            {
              "internalType": "address payable",
              "name": "seller",
              "type": "address"
            },
            {
              "internalType": "uint256",
              "name": "price",
              "type": "uint256"
            },
            {
              "internalType": "bool",
              "name": "currentlyListed",
              "type": "bool"
            }
          ],
          "internalType": "struct NftMarketplace.ListedToken[]",
          "name": "",
          "type": "tuple[]"
        }
      ],
      "stateMutability": "view",
      "type": "function"
    },
    {
      "inputs": [
        {
          "internalType": "address",
          "name": "owner",
          "type": "address"
        },
        {
          "internalType": "address",
          "name": "operator",
          "type": "address"
        }
      ],
      "name": "isApprovedForAll",
      "outputs": [
        {
          "internalType": "bool",
          "name": "",
          "type": "bool"
        }
      ],
      "stateMutability": "view",
      "type": "function"
    },
    {
      "inputs": [],
      "name": "name",
      "outputs": [
        {
          "internalType": "string",
          "name": "",
          "type": "string"
        }
      ],
      "stateMutability": "view",
      "type": "function"
    },
    {
      "inputs": [
        {
          "internalType": "uint256",
          "name": "tokenId",
          "type": "uint256"
        }
      ],
      "name": "ownerOf",
      "outputs": [
        {
          "internalType": "address",
          "name": "",
          "type": "address"
        }
      ],
      "stateMutability": "view",
      "type": "function"
    },
    {
      "inputs": [
        {
          "internalType": "uint256",
          "name": "_tokenId",
          "type": "uint256"
        },
        {
          "internalType": "uint256",
          "name": "_salePrice",
          "type": "uint256"
        }
      ],
      "name": "royaltyInfo",
      "outputs": [
        {
          "internalType": "address",
          "name": "",
          "type": "address"
        },
        {
          "internalType": "uint256",
          "name": "",
          "type": "uint256"
        }
      ],
      "stateMutability": "view",
      "type": "function"
    },
    {
      "inputs": [
        {
          "internalType": "address",
          "name": "from",
          "type": "address"
        },
        {
          "internalType": "address",
          "name": "to",
          "type": "address"
        },
        {
          "internalType": "uint256",
          "name": "tokenId",
          "type": "uint256"
        }
      ],
      "name": "safeTransferFrom",
      "outputs": [],
      "stateMutability": "nonpayable",
      "type": "function"
    },
    {
      "inputs": [
        {
          "internalType": "address",
          "name": "from",
          "type": "address"
        },
        {
          "internalType": "address",
          "name": "to",
          "type": "address"
        },
        {
          "internalType": "uint256",
          "name": "tokenId",
          "type": "uint256"
        },
        {
          "internalType": "bytes",
          "name": "data",
          "type": "bytes"
        }
      ],
      "name": "safeTransferFrom",
      "outputs": [],
      "stateMutability": "nonpayable",
      "type": "function"
    },
    {
      "inputs": [
        {
          "internalType": "address",
          "name": "operator",
          "type": "address"
        },
        {
          "internalType": "bool",
          "name": "approved",
          "type": "bool"
        }
      ],
      "name": "setApprovalForAll",
      "outputs": [],
      "stateMutability": "nonpayable",
      "type": "function"
    },
    {
      "inputs": [
        {
          "internalType": "bytes4",
          "name": "interfaceId",
          "type": "bytes4"
        }
      ],
      "name": "supportsInterface",
      "outputs": [
        {
          "internalType": "bool",
          "name": "",
          "type": "bool"
        }
      ],
      "stateMutability": "view",
      "type": "function"
    },
    {
      "inputs": [],
      "name": "symbol",
      "outputs": [
        {
          "internalType": "string",
          "name": "",
          "type": "string"
        }
      ],
      "stateMutability": "view",
      "type": "function"
    },
    {
      "inputs": [
        {
          "internalType": "uint256",
          "name": "tokenId",
          "type": "uint256"
        }
      ],
      "name": "tokenURI",
      "outputs": [
        {
          "internalType": "string",
          "name": "",
          "type": "string"
        }
      ],
      "stateMutability": "view",
      "type": "function"
    },
    {
      "inputs": [
        {
          "internalType": "address",
          "name": "from",
          "type": "address"
        },
        {
          "internalType": "address",
          "name": "to",
          "type": "address"
        },
        {
          "internalType": "uint256",
          "name": "tokenId",
          "type": "uint256"
        }
      ],
      "name": "transferFrom",
      "outputs": [],
      "stateMutability": "nonpayable",
      "type": "function"
    },
    {
      "inputs": [
        {
          "internalType": "uint256",
          "name": "_listPrice",
          "type": "uint256"
        }
      ],
      "name": "updateListPrice",
      "outputs": [],
      "stateMutability": "payable",
      "type": "function"
    },
    {
      "inputs": [
        {
          "internalType": "uint96",
          "name": "_feeNumerator",
          "type": "uint96"
        }
      ],
      "name": "updateROyalty",
      "outputs": [],
      "stateMutability": "nonpayable",
      "type": "function"
    }
  ],
  "bytecode": "0x6080604052662386f26fc10000600c55600d80546001600160601b03191660641790553480156200002f57600080fd5b50604080518082018252600e81526d4e46544d61726b6574706c61636560901b6020808301918252835180850190945260048452634e46544d60e01b9084015281519192916200008291600091620000b3565b50805162000098906001906020840190620000b3565b5050600b80546001600160a01b031916331790555062000196565b828054620000c19062000159565b90600052602060002090601f016020900481019282620000e5576000855562000130565b82601f106200010057805160ff191683800117855562000130565b8280016001018555821562000130579182015b828111156200013057825182559160200191906001019062000113565b506200013e92915062000142565b5090565b5b808211156200013e576000815560010162000143565b600181811c908216806200016e57607f821691505b602082108114156200019057634e487b7160e01b600052602260045260246000fd5b50919050565b61243b80620001a66000396000f3fe60806040526004361061014b5760003560e01c806372b3b620116100b6578063c322579c1161006f578063c322579c146103eb578063c87b56dd146103fe578063d1a88ae51461041e578063e0391b0914610433578063e985e9c514610448578063ef2d17461461049157600080fd5b806372b3b620146103435780638e2645901461035657806395d89b41146103835780639b1225c414610398578063a22cb465146103ab578063b88d4fde146103cb57600080fd5b806342842e0e1161010857806342842e0e14610260578063483082b014610280578063629cb2e4146102c25780636352211e146102e457806368f1945f1461030457806370a082311461032357600080fd5b806301ffc9a71461015057806306fdde0314610185578063081812fc146101a7578063095ea7b3146101df57806323b872dd146102015780632a55205a14610221575b600080fd5b34801561015c57600080fd5b5061017061016b366004611fd1565b6104a6565b60405190151581526020015b60405180910390f35b34801561019157600080fd5b5061019a6104b7565b60405161017c91906121e5565b3480156101b357600080fd5b506101c76101c236600461205f565b610549565b6040516001600160a01b03909116815260200161017c565b3480156101eb57600080fd5b506101ff6101fa366004611fa8565b610570565b005b34801561020d57600080fd5b506101ff61021c366004611eba565b61068b565b34801561022d57600080fd5b5061024161023c366004612077565b6106bc565b604080516001600160a01b03909316835260208301919091520161017c565b34801561026c57600080fd5b506101ff61027b366004611eba565b610768565b34801561028c57600080fd5b506101ff61029b366004612098565b600d80546bffffffffffffffffffffffff19166001600160601b0392909216919091179055565b3480156102ce57600080fd5b506102d7610783565b60405161017c9190612197565b3480156102f057600080fd5b506101c76102ff36600461205f565b6109c6565b34801561031057600080fd5b50600c545b60405190815260200161017c565b34801561032f57600080fd5b5061031561033e366004611e6e565b610a26565b610315610351366004612009565b610aac565b34801561036257600080fd5b5061037661037136600461205f565b610aee565b60405161017c91906122dc565b34801561038f57600080fd5b5061019a610b58565b6101ff6103a636600461205f565b610b67565b3480156103b757600080fd5b506101ff6103c6366004611f6e565b610d16565b3480156103d757600080fd5b506101ff6103e6366004611ef5565b610d25565b6101ff6103f936600461205f565b610d5d565b34801561040a57600080fd5b5061019a61041936600461205f565b610dc8565b34801561042a57600080fd5b50610376610ed9565b34801561043f57600080fd5b506102d7610f50565b34801561045457600080fd5b50610170610463366004611e88565b6001600160a01b03918216600090815260056020908152604080832093909416825291909152205460ff1690565b34801561049d57600080fd5b50610315611096565b60006104b1826110a6565b92915050565b6060600080546104c69061236d565b80601f01602080910402602001604051908101604052809291908181526020018280546104f29061236d565b801561053f5780601f106105145761010080835404028352916020019161053f565b820191906000526020600020905b81548152906001019060200180831161052257829003601f168201915b5050505050905090565b6000610554826110cb565b506000908152600460205260409020546001600160a01b031690565b600061057b826109c6565b9050806001600160a01b0316836001600160a01b031614156105ee5760405162461bcd60e51b815260206004820152602160248201527f4552433732313a20617070726f76616c20746f2063757272656e74206f776e656044820152603960f91b60648201526084015b60405180910390fd5b336001600160a01b038216148061060a575061060a8133610463565b61067c5760405162461bcd60e51b815260206004820152603d60248201527f4552433732313a20617070726f76652063616c6c6572206973206e6f7420746f60448201527f6b656e206f776e6572206f7220617070726f76656420666f7220616c6c00000060648201526084016105e5565b610686838361112d565b505050565b610695338261119b565b6106b15760405162461bcd60e51b81526004016105e5906121f8565b610686838383611219565b60008281526008602090815260408083208151808301909252546001600160a01b038116808352600160a01b9091046001600160601b03169282019290925282916107315750604080518082019091526007546001600160a01b0381168252600160a01b90046001600160601b031660208201525b602081015160009061271090610750906001600160601b031687612322565b61075a9190612302565b915196919550909350505050565b61068683838360405180602001604052806000815250610d25565b6060600061079060095490565b905060008080805b848110156108285733600e60006107b08460016122ea565b81526020810191909152604001600020600101546001600160a01b03161480610803575033600e60006107e48460016122ea565b81526020810191909152604001600020600201546001600160a01b0316145b15610816576108136001856122ea565b93505b80610820816123a8565b915050610798565b5060008367ffffffffffffffff81111561085257634e487b7160e01b600052604160045260246000fd5b60405190808252806020026020018201604052801561088b57816020015b610878611d15565b8152602001906001900390816108705790505b50905060005b858110156109bc5733600e60006108a98460016122ea565b81526020810191909152604001600020600101546001600160a01b031614806108fc575033600e60006108dd8460016122ea565b81526020810191909152604001600020600201546001600160a01b0316145b156109aa5761090c8160016122ea565b6000818152600e6020908152604091829020825160a0810184528154815260018201546001600160a01b039081169382019390935260028201549092169282019290925260038201546060820152600482015460ff16151560808201528451929550909184908790811061099057634e487b7160e01b600052603260045260246000fd5b60209081029190910101526109a66001866122ea565b9450505b806109b4816123a8565b915050610891565b5095945050505050565b6000818152600260205260408120546001600160a01b0316806104b15760405162461bcd60e51b8152602060048201526018602482015277115490cdcc8c4e881a5b9d985b1a59081d1bdad95b88125160421b60448201526064016105e5565b60006001600160a01b038216610a905760405162461bcd60e51b815260206004820152602960248201527f4552433732313a2061646472657373207a65726f206973206e6f7420612076616044820152683634b21037bbb732b960b91b60648201526084016105e5565b506001600160a01b031660009081526003602052604090205490565b6000610abc600980546001019055565b6000610ac760095490565b9050610ad3338261137d565b610add8185611397565b610ae78184611431565b9392505050565b610af6611d15565b506000908152600e6020908152604091829020825160a0810184528154815260018201546001600160a01b03908116938201939093526002820154909216928201929092526003820154606082015260049091015460ff161515608082015290565b6060600180546104c69061236d565b6000818152600e6020526040902060038101546002909101546001600160a01b0316348214610c00576040805162461bcd60e51b81526020600482015260248101919091527f506c65617365207375626d6974207468652061736b696e67207072696365206960448201527f6e206f7264657220746f20636f6d706c6574652074686520707572636861736560648201526084016105e5565b6000838152600e6020526040902060048101805460ff1916600117905560020180546001600160a01b03191633179055610c3e600a80546001019055565b610c49303385611219565b610c533084610570565b600080610c6085856106bc565b60405191935091506001600160a01b0383169082156108fc029083906000818181858888f19350505050158015610c9b573d6000803e3d6000fd5b50600b54600c546040516001600160a01b039092169181156108fc0291906000818181858888f19350505050158015610cd8573d6000803e3d6000fd5b506040516001600160a01b038416903480156108fc02916000818181858888f19350505050158015610d0e573d6000803e3d6000fd5b505050505050565b610d213383836115f4565b5050565b610d2f338361119b565b610d4b5760405162461bcd60e51b81526004016105e5906121f8565b610d57848484846116c3565b50505050565b600b546001600160a01b03163314610dc35760405162461bcd60e51b815260206004820152602360248201527f4f6e6c79206f776e65722063616e20757064617465206c697374696e6720707260448201526269636560e81b60648201526084016105e5565b600c55565b6060610dd3826110cb565b60008281526006602052604081208054610dec9061236d565b80601f0160208091040260200160405190810160405280929190818152602001828054610e189061236d565b8015610e655780601f10610e3a57610100808354040283529160200191610e65565b820191906000526020600020905b815481529060010190602001808311610e4857829003601f168201915b505050505090506000610e8360408051602081019091526000815290565b9050805160001415610e96575092915050565b815115610ec8578082604051602001610eb092919061212b565b60405160208183030381529060405292505050919050565b610ed1846116f6565b949350505050565b610ee1611d15565b6000610eec60095490565b6000908152600e6020908152604091829020825160a0810184528154815260018201546001600160a01b03908116938201939093526002820154909216928201929092526003820154606082015260049091015460ff161515608082015292915050565b60606000610f5d60095490565b905060008167ffffffffffffffff811115610f8857634e487b7160e01b600052604160045260246000fd5b604051908082528060200260200182016040528015610fc157816020015b610fae611d15565b815260200190600190039081610fa65790505b509050600080805b8481101561108c57610fdc8160016122ea565b6000818152600e6020908152604091829020825160a0810184528154815260018201546001600160a01b039081169382019390935260028201549092169282019290925260038201546060820152600482015460ff16151560808201528651929450909186908690811061106057634e487b7160e01b600052603260045260246000fd5b60209081029190910101526110766001856122ea565b9350508080611084906123a8565b915050610fc9565b5091949350505050565b60006110a160095490565b905090565b60006001600160e01b0319821663152a902d60e11b14806104b157506104b182611769565b6000818152600260205260409020546001600160a01b031661112a5760405162461bcd60e51b8152602060048201526018602482015277115490cdcc8c4e881a5b9d985b1a59081d1bdad95b88125160421b60448201526064016105e5565b50565b600081815260046020526040902080546001600160a01b0319166001600160a01b0384169081179091558190611162826109c6565b6001600160a01b03167f8c5be1e5ebec7d5bd14f71427d1e84f3dd0314c0f7b2291e5b200ac8c7c3b92560405160405180910390a45050565b6000806111a7836109c6565b9050806001600160a01b0316846001600160a01b031614806111ee57506001600160a01b0380821660009081526005602090815260408083209388168352929052205460ff165b80610ed15750836001600160a01b031661120784610549565b6001600160a01b031614949350505050565b826001600160a01b031661122c826109c6565b6001600160a01b0316146112525760405162461bcd60e51b81526004016105e590612297565b6001600160a01b0382166112b45760405162461bcd60e51b8152602060048201526024808201527f4552433732313a207472616e7366657220746f20746865207a65726f206164646044820152637265737360e01b60648201526084016105e5565b826001600160a01b03166112c7826109c6565b6001600160a01b0316146112ed5760405162461bcd60e51b81526004016105e590612297565b600081815260046020908152604080832080546001600160a01b03199081169091556001600160a01b0387811680865260038552838620805460001901905590871680865283862080546001019055868652600290945282852080549092168417909155905184937fddf252ad1be2c89b69c2b068fc378daa952ba7f163c4a11628f55a4df523b3ef91a4505050565b610d218282604051806020016040528060008152506117b9565b6000828152600260205260409020546001600160a01b03166114125760405162461bcd60e51b815260206004820152602e60248201527f45524337323155524953746f726167653a2055524920736574206f66206e6f6e60448201526d32bc34b9ba32b73a103a37b5b2b760911b60648201526084016105e5565b6000828152600660209081526040909120825161068692840190611d43565b600c5434146114985760405162461bcd60e51b815260206004820152602d60248201527f4861766520746f2073656e6420657468657220657175616c20746f207468652060448201526c6c697374696e6720707269636560981b60648201526084016105e5565b600081116114f35760405162461bcd60e51b815260206004820152602260248201527f4d616b652073757265207468652070726963652069736e2774206e6567617469604482015261766560f01b60648201526084016105e5565b6040805160a081018252838152306020808301918252338385018181526060850187815260016080870181815260008b8152600e9096529790942095518655935192850180546001600160a01b039485166001600160a01b0319918216179091559051600286018054919094169116179091559051600383015591516004909101805491151560ff19909216919091179055600d5461159c9184916001600160601b03166117ec565b6115a7333084611219565b604080513081523360208201529081018290526001606082015282907f9339409317fd01fabff48b703019016f49159bacc801ae872d2ca637d226e4c09060800160405180910390a25050565b816001600160a01b0316836001600160a01b031614156116565760405162461bcd60e51b815260206004820152601960248201527f4552433732313a20617070726f766520746f2063616c6c65720000000000000060448201526064016105e5565b6001600160a01b03838116600081815260056020908152604080832094871680845294825291829020805460ff191686151590811790915591519182527f17307eab39ab6107e8899845ad3d59bd9653f200f220920489ca2b5937696c31910160405180910390a3505050565b6116ce848484611219565b6116da848484846118fa565b610d575760405162461bcd60e51b81526004016105e590612245565b6060611701826110cb565b600061171860408051602081019091526000815290565b905060008151116117385760405180602001604052806000815250610ae7565b8061174284611a07565b60405160200161175392919061212b565b6040516020818303038152906040529392505050565b60006001600160e01b031982166380ac58cd60e01b148061179a57506001600160e01b03198216635b5e139f60e01b145b806104b157506301ffc9a760e01b6001600160e01b03198316146104b1565b6117c38383611ab2565b6117d060008484846118fa565b6106865760405162461bcd60e51b81526004016105e590612245565b6127106001600160601b038216111561185a5760405162461bcd60e51b815260206004820152602a60248201527f455243323938313a20726f79616c7479206665652077696c6c206578636565646044820152692073616c65507269636560b01b60648201526084016105e5565b6001600160a01b0382166118b05760405162461bcd60e51b815260206004820152601b60248201527f455243323938313a20496e76616c696420706172616d6574657273000000000060448201526064016105e5565b6040805180820182526001600160a01b0393841681526001600160601b0392831660208083019182526000968752600890529190942093519051909116600160a01b029116179055565b60006001600160a01b0384163b156119fc57604051630a85bd0160e11b81526001600160a01b0385169063150b7a029061193e90339089908890889060040161215a565b602060405180830381600087803b15801561195857600080fd5b505af1925050508015611988575060408051601f3d908101601f1916820190925261198591810190611fed565b60015b6119e2573d8080156119b6576040519150601f19603f3d011682016040523d82523d6000602084013e6119bb565b606091505b5080516119da5760405162461bcd60e51b81526004016105e590612245565b805181602001fd5b6001600160e01b031916630a85bd0160e11b149050610ed1565b506001949350505050565b60606000611a1483611c3d565b600101905060008167ffffffffffffffff811115611a4257634e487b7160e01b600052604160045260246000fd5b6040519080825280601f01601f191660200182016040528015611a6c576020820181803683370190505b5090508181016020015b600019016f181899199a1a9b1b9c1cb0b131b232b360811b600a86061a8153600a8504945084611aa557611aaa565b611a76565b509392505050565b6001600160a01b038216611b085760405162461bcd60e51b815260206004820181905260248201527f4552433732313a206d696e7420746f20746865207a65726f206164647265737360448201526064016105e5565b6000818152600260205260409020546001600160a01b031615611b6d5760405162461bcd60e51b815260206004820152601c60248201527f4552433732313a20746f6b656e20616c7265616479206d696e7465640000000060448201526064016105e5565b6000818152600260205260409020546001600160a01b031615611bd25760405162461bcd60e51b815260206004820152601c60248201527f4552433732313a20746f6b656e20616c7265616479206d696e7465640000000060448201526064016105e5565b6001600160a01b038216600081815260036020908152604080832080546001019055848352600290915280822080546001600160a01b0319168417905551839291907fddf252ad1be2c89b69c2b068fc378daa952ba7f163c4a11628f55a4df523b3ef908290a45050565b60008072184f03e93ff9f4daa797ed6e38ed64bf6a1f0160401b8310611c7c5772184f03e93ff9f4daa797ed6e38ed64bf6a1f0160401b830492506040015b6d04ee2d6d415b85acef81000000008310611ca8576d04ee2d6d415b85acef8100000000830492506020015b662386f26fc100008310611cc657662386f26fc10000830492506010015b6305f5e1008310611cde576305f5e100830492506008015b6127108310611cf257612710830492506004015b60648310611d04576064830492506002015b600a83106104b15760010192915050565b6040805160a08101825260008082526020820181905291810182905260608101829052608081019190915290565b828054611d4f9061236d565b90600052602060002090601f016020900481019282611d715760008555611db7565b82601f10611d8a57805160ff1916838001178555611db7565b82800160010185558215611db7579182015b82811115611db7578251825591602001919060010190611d9c565b50611dc3929150611dc7565b5090565b5b80821115611dc35760008155600101611dc8565b600067ffffffffffffffff80841115611df757611df76123d9565b604051601f8501601f19908116603f01168101908282118183101715611e1f57611e1f6123d9565b81604052809350858152868686011115611e3857600080fd5b858560208301376000602087830101525050509392505050565b80356001600160a01b0381168114611e6957600080fd5b919050565b600060208284031215611e7f578081fd5b610ae782611e52565b60008060408385031215611e9a578081fd5b611ea383611e52565b9150611eb160208401611e52565b90509250929050565b600080600060608486031215611ece578081fd5b611ed784611e52565b9250611ee560208501611e52565b9150604084013590509250925092565b60008060008060808587031215611f0a578081fd5b611f1385611e52565b9350611f2160208601611e52565b925060408501359150606085013567ffffffffffffffff811115611f43578182fd5b8501601f81018713611f53578182fd5b611f6287823560208401611ddc565b91505092959194509250565b60008060408385031215611f80578182fd5b611f8983611e52565b915060208301358015158114611f9d578182fd5b809150509250929050565b60008060408385031215611fba578182fd5b611fc383611e52565b946020939093013593505050565b600060208284031215611fe2578081fd5b8135610ae7816123ef565b600060208284031215611ffe578081fd5b8151610ae7816123ef565b6000806040838503121561201b578182fd5b823567ffffffffffffffff811115612031578283fd5b8301601f81018513612041578283fd5b61205085823560208401611ddc565b95602094909401359450505050565b600060208284031215612070578081fd5b5035919050565b60008060408385031215612089578182fd5b50508035926020909101359150565b6000602082840312156120a9578081fd5b81356001600160601b0381168114610ae7578182fd5b600081518084526120d7816020860160208601612341565b601f01601f19169290920160200192915050565b805182526020808201516001600160a01b039081169184019190915260408083015190911690830152606080820151908301526080908101511515910152565b6000835161213d818460208801612341565b835190830190612151818360208801612341565b01949350505050565b6001600160a01b038581168252841660208201526040810183905260806060820181905260009061218d908301846120bf565b9695505050505050565b6020808252825182820181905260009190848201906040850190845b818110156121d9576121c68385516120eb565b9284019260a092909201916001016121b3565b50909695505050505050565b602081526000610ae760208301846120bf565b6020808252602d908201527f4552433732313a2063616c6c6572206973206e6f7420746f6b656e206f776e6560408201526c1c881bdc88185c1c1c9bdd9959609a1b606082015260800190565b60208082526032908201527f4552433732313a207472616e7366657220746f206e6f6e20455243373231526560408201527131b2b4bb32b91034b6b83632b6b2b73a32b960711b606082015260800190565b60208082526025908201527f4552433732313a207472616e736665722066726f6d20696e636f72726563742060408201526437bbb732b960d91b606082015260800190565b60a081016104b182846120eb565b600082198211156122fd576122fd6123c3565b500190565b60008261231d57634e487b7160e01b81526012600452602481fd5b500490565b600081600019048311821515161561233c5761233c6123c3565b500290565b60005b8381101561235c578181015183820152602001612344565b83811115610d575750506000910152565b600181811c9082168061238157607f821691505b602082108114156123a257634e487b7160e01b600052602260045260246000fd5b50919050565b60006000198214156123bc576123bc6123c3565b5060010190565b634e487b7160e01b600052601160045260246000fd5b634e487b7160e01b600052604160045260246000fd5b6001600160e01b03198116811461112a57600080fdfea264697066735822122031a9e94fa193142f54c2e8da32ccc8198f2e93af8069ca37e3059ec91eb6b34864736f6c63430008040033",
  "linkReferences": {},
  "deployedLinkReferences": {}
}